{
  "contracts/TodoList.sol": {
    "TodoList": {
      "abi": [
        {
          "inputs": [],
          "stateMutability": "nonpayable",
          "type": "constructor"
        },
        {
          "anonymous": false,
          "inputs": [
            {
              "indexed": false,
              "internalType": "uint256",
              "name": "id",
              "type": "uint256"
            },
            {
              "indexed": false,
              "internalType": "string",
              "name": "taskname",
              "type": "string"
            },
            {
              "indexed": false,
              "internalType": "bool",
              "name": "status",
              "type": "bool"
            }
          ],
          "name": "TaskCreated",
          "type": "event"
        },
        {
          "anonymous": false,
          "inputs": [
            {
              "indexed": false,
              "internalType": "uint256",
              "name": "id",
              "type": "uint256"
            },
            {
              "indexed": false,
              "internalType": "bool",
              "name": "status",
              "type": "bool"
            }
          ],
          "name": "TaskStatus",
          "type": "event"
        },
        {
          "inputs": [
            {
              "internalType": "string",
              "name": "_taskname",
              "type": "string"
            }
          ],
          "name": "createTask",
          "outputs": [],
          "stateMutability": "nonpayable",
          "type": "function"
        },
        {
          "inputs": [],
          "name": "taskCount",
          "outputs": [
            {
              "internalType": "uint256",
              "name": "",
              "type": "uint256"
            }
          ],
          "stateMutability": "view",
          "type": "function"
        },
        {
          "inputs": [
            {
              "internalType": "uint256",
              "name": "",
              "type": "uint256"
            }
          ],
          "name": "tasks",
          "outputs": [
            {
              "internalType": "uint256",
              "name": "id",
              "type": "uint256"
            },
            {
              "internalType": "string",
              "name": "taskname",
              "type": "string"
            },
            {
              "internalType": "bool",
              "name": "status",
              "type": "bool"
            }
          ],
          "stateMutability": "view",
          "type": "function"
        },
        {
          "inputs": [
            {
              "internalType": "uint256",
              "name": "_id",
              "type": "uint256"
            }
          ],
          "name": "toggleStatus",
          "outputs": [],
          "stateMutability": "nonpayable",
          "type": "function"
        }
      ],
      "evm": {
        "bytecode": {
          "linkReferences": {},
          "object": "6080604052600080553480156200001557600080fd5b506200005c6040518060400160405280601281526020017f546f646f204c697374205475746f7269616c00000000000000000000000000008152506200006260201b60201c565b62000615565b600080815480929190620000769062000170565b919050555060405180606001604052806000548152602001828152602001600015158152506001600080548152602001908152602001600020600082015181600001556020820151816001019081620000d091906200042d565b5060408201518160020160006101000a81548160ff0219169083151502179055509050507f05d0fb833127fc08168556d0e7ca9554fc3f6bc843b3b7d2bf1c35aea6bab6606000548260006040516200012c93929190620005d1565b60405180910390a150565b7f4e487b7100000000000000000000000000000000000000000000000000000000600052601160045260246000fd5b6000819050919050565b60006200017d8262000166565b91507fffffffffffffffffffffffffffffffffffffffffffffffffffffffffffffffff8203620001b257620001b162000137565b5b600182019050919050565b600081519050919050565b7f4e487b7100000000000000000000000000000000000000000000000000000000600052604160045260246000fd5b7f4e487b7100000000000000000000000000000000000000000000000000000000600052602260045260246000fd5b600060028204905060018216806200023f57607f821691505b602082108103620002555762000254620001f7565b5b50919050565b60008190508160005260206000209050919050565b60006020601f8301049050919050565b600082821b905092915050565b600060088302620002bf7fffffffffffffffffffffffffffffffffffffffffffffffffffffffffffffffff8262000280565b620002cb868362000280565b95508019841693508086168417925050509392505050565b6000819050919050565b60006200030e62000308620003028462000166565b620002e3565b62000166565b9050919050565b6000819050919050565b6200032a83620002ed565b62000342620003398262000315565b8484546200028d565b825550505050565b600090565b620003596200034a565b620003668184846200031f565b505050565b5b818110156200038e57620003826000826200034f565b6001810190506200036c565b5050565b601f821115620003dd57620003a7816200025b565b620003b28462000270565b81016020851015620003c2578190505b620003da620003d18562000270565b8301826200036b565b50505b505050565b600082821c905092915050565b60006200040260001984600802620003e2565b1980831691505092915050565b60006200041d8383620003ef565b9150826002028217905092915050565b6200043882620001bd565b67ffffffffffffffff811115620004545762000453620001c8565b5b62000460825462000226565b6200046d82828562000392565b600060209050601f831160018114620004a5576000841562000490578287015190505b6200049c85826200040f565b8655506200050c565b601f198416620004b5866200025b565b60005b82811015620004df57848901518255600182019150602085019450602081019050620004b8565b86831015620004ff5784890151620004fb601f891682620003ef565b8355505b6001600288020188555050505b505050505050565b6200051f8162000166565b82525050565b600082825260208201905092915050565b60005b838110156200055657808201518184015260208101905062000539565b60008484015250505050565b6000601f19601f8301169050919050565b60006200058082620001bd565b6200058c818562000525565b93506200059e81856020860162000536565b620005a98162000562565b840191505092915050565b60008115159050919050565b620005cb81620005b4565b82525050565b6000606082019050620005e8600083018662000514565b8181036020830152620005fc818562000573565b90506200060d6040830184620005c0565b949350505050565b610aaf80620006256000396000f3fe608060405234801561001057600080fd5b506004361061004c5760003560e01c8063111002aa1461005157806351db2e761461006d5780638d97767214610089578063b6cb58a5146100bb575b600080fd5b61006b6004803603810190610066919061054d565b6100d9565b005b610087600480360381019061008291906105cc565b6101a8565b005b6100a3600480360381019061009e91906105cc565b61032e565b6040516100b2939291906106a2565b60405180910390f35b6100c36103ed565b6040516100d091906106e0565b60405180910390f35b6000808154809291906100eb9061072a565b919050555060405180606001604052806000548152602001828152602001600015158152506001600080548152602001908152602001600020600082015181600001556020820151816001019081610143919061097e565b5060408201518160020160006101000a81548160ff0219169083151502179055509050507f05d0fb833127fc08168556d0e7ca9554fc3f6bc843b3b7d2bf1c35aea6bab66060005482600060405161019d939291906106a2565b60405180910390a150565b600060016000838152602001908152602001600020604051806060016040529081600082015481526020016001820180546101e2906107a1565b80601f016020809104026020016040519081016040528092919081815260200182805461020e906107a1565b801561025b5780601f106102305761010080835404028352916020019161025b565b820191906000526020600020905b81548152906001019060200180831161023e57829003601f168201915b505050505081526020016002820160009054906101000a900460ff161515151581525050905080604001511581604001901515908115158152505080600160008481526020019081526020016000206000820151816000015560208201518160010190816102c9919061097e565b5060408201518160020160006101000a81548160ff0219169083151502179055509050507faccf26a040a80e6a25119cb39da293ff807081080159d2c6db82f9c60077ea4c828260400151604051610322929190610a50565b60405180910390a15050565b6001602052806000526040600020600091509050806000015490806001018054610357906107a1565b80601f0160208091040260200160405190810160405280929190818152602001828054610383906107a1565b80156103d05780601f106103a5576101008083540402835291602001916103d0565b820191906000526020600020905b8154815290600101906020018083116103b357829003601f168201915b5050505050908060020160009054906101000a900460ff16905083565b60005481565b6000604051905090565b600080fd5b600080fd5b600080fd5b600080fd5b6000601f19601f8301169050919050565b7f4e487b7100000000000000000000000000000000000000000000000000000000600052604160045260246000fd5b61045a82610411565b810181811067ffffffffffffffff8211171561047957610478610422565b5b80604052505050565b600061048c6103f3565b90506104988282610451565b919050565b600067ffffffffffffffff8211156104b8576104b7610422565b5b6104c182610411565b9050602081019050919050565b82818337600083830152505050565b60006104f06104eb8461049d565b610482565b90508281526020810184848401111561050c5761050b61040c565b5b6105178482856104ce565b509392505050565b600082601f83011261053457610533610407565b5b81356105448482602086016104dd565b91505092915050565b600060208284031215610563576105626103fd565b5b600082013567ffffffffffffffff81111561058157610580610402565b5b61058d8482850161051f565b91505092915050565b6000819050919050565b6105a981610596565b81146105b457600080fd5b50565b6000813590506105c6816105a0565b92915050565b6000602082840312156105e2576105e16103fd565b5b60006105f0848285016105b7565b91505092915050565b61060281610596565b82525050565b600081519050919050565b600082825260208201905092915050565b60005b83811015610642578082015181840152602081019050610627565b60008484015250505050565b600061065982610608565b6106638185610613565b9350610673818560208601610624565b61067c81610411565b840191505092915050565b60008115159050919050565b61069c81610687565b82525050565b60006060820190506106b760008301866105f9565b81810360208301526106c9818561064e565b90506106d86040830184610693565b949350505050565b60006020820190506106f560008301846105f9565b92915050565b7f4e487b7100000000000000000000000000000000000000000000000000000000600052601160045260246000fd5b600061073582610596565b91507fffffffffffffffffffffffffffffffffffffffffffffffffffffffffffffffff8203610767576107666106fb565b5b600182019050919050565b7f4e487b7100000000000000000000000000000000000000000000000000000000600052602260045260246000fd5b600060028204905060018216806107b957607f821691505b6020821081036107cc576107cb610772565b5b50919050565b60008190508160005260206000209050919050565b60006020601f8301049050919050565b600082821b905092915050565b6000600883026108347fffffffffffffffffffffffffffffffffffffffffffffffffffffffffffffffff826107f7565b61083e86836107f7565b95508019841693508086168417925050509392505050565b6000819050919050565b600061087b61087661087184610596565b610856565b610596565b9050919050565b6000819050919050565b61089583610860565b6108a96108a182610882565b848454610804565b825550505050565b600090565b6108be6108b1565b6108c981848461088c565b505050565b5b818110156108ed576108e26000826108b6565b6001810190506108cf565b5050565b601f82111561093257610903816107d2565b61090c846107e7565b8101602085101561091b578190505b61092f610927856107e7565b8301826108ce565b50505b505050565b600082821c905092915050565b600061095560001984600802610937565b1980831691505092915050565b600061096e8383610944565b9150826002028217905092915050565b61098782610608565b67ffffffffffffffff8111156109a05761099f610422565b5b6109aa82546107a1565b6109b58282856108f1565b600060209050601f8311600181146109e857600084156109d6578287015190505b6109e08582610962565b865550610a48565b601f1984166109f6866107d2565b60005b82811015610a1e578489015182556001820191506020850194506020810190506109f9565b86831015610a3b5784890151610a37601f891682610944565b8355505b6001600288020188555050505b505050505050565b6000604082019050610a6560008301856105f9565b610a726020830184610693565b939250505056fea264697066735822122019d9a39954daff326829dbeff971d323907c62b15aa0e7611c6d22868d1c839b64736f6c63430008180033",
          "opcodes": "PUSH1 0x80 PUSH1 0x40 MSTORE PUSH1 0x0 DUP1 SSTORE CALLVALUE DUP1 ISZERO PUSH3 0x15 JUMPI PUSH1 0x0 DUP1 REVERT JUMPDEST POP PUSH3 0x5C PUSH1 0x40 MLOAD DUP1 PUSH1 0x40 ADD PUSH1 0x40 MSTORE DUP1 PUSH1 0x12 DUP2 MSTORE PUSH1 0x20 ADD PUSH32 0x546F646F204C697374205475746F7269616C0000000000000000000000000000 DUP2 MSTORE POP PUSH3 0x62 PUSH1 0x20 SHL PUSH1 0x20 SHR JUMP JUMPDEST PUSH3 0x615 JUMP JUMPDEST PUSH1 0x0 DUP1 DUP2 SLOAD DUP1 SWAP3 SWAP2 SWAP1 PUSH3 0x76 SWAP1 PUSH3 0x170 JUMP JUMPDEST SWAP2 SWAP1 POP SSTORE POP PUSH1 0x40 MLOAD DUP1 PUSH1 0x60 ADD PUSH1 0x40 MSTORE DUP1 PUSH1 0x0 SLOAD DUP2 MSTORE PUSH1 0x20 ADD DUP3 DUP2 MSTORE PUSH1 0x20 ADD PUSH1 0x0 ISZERO ISZERO DUP2 MSTORE POP PUSH1 0x1 PUSH1 0x0 DUP1 SLOAD DUP2 MSTORE PUSH1 0x20 ADD SWAP1 DUP2 MSTORE PUSH1 0x20 ADD PUSH1 0x0 KECCAK256 PUSH1 0x0 DUP3 ADD MLOAD DUP2 PUSH1 0x0 ADD SSTORE PUSH1 0x20 DUP3 ADD MLOAD DUP2 PUSH1 0x1 ADD SWAP1 DUP2 PUSH3 0xD0 SWAP2 SWAP1 PUSH3 0x42D JUMP JUMPDEST POP PUSH1 0x40 DUP3 ADD MLOAD DUP2 PUSH1 0x2 ADD PUSH1 0x0 PUSH2 0x100 EXP DUP2 SLOAD DUP2 PUSH1 0xFF MUL NOT AND SWAP1 DUP4 ISZERO ISZERO MUL OR SWAP1 SSTORE POP SWAP1 POP POP PUSH32 0x5D0FB833127FC08168556D0E7CA9554FC3F6BC843B3B7D2BF1C35AEA6BAB660 PUSH1 0x0 SLOAD DUP3 PUSH1 0x0 PUSH1 0x40 MLOAD PUSH3 0x12C SWAP4 SWAP3 SWAP2 SWAP1 PUSH3 0x5D1 JUMP JUMPDEST PUSH1 0x40 MLOAD DUP1 SWAP2 SUB SWAP1 LOG1 POP JUMP JUMPDEST PUSH32 0x4E487B7100000000000000000000000000000000000000000000000000000000 PUSH1 0x0 MSTORE PUSH1 0x11 PUSH1 0x4 MSTORE PUSH1 0x24 PUSH1 0x0 REVERT JUMPDEST PUSH1 0x0 DUP2 SWAP1 POP SWAP2 SWAP1 POP JUMP JUMPDEST PUSH1 0x0 PUSH3 0x17D DUP3 PUSH3 0x166 JUMP JUMPDEST SWAP2 POP PUSH32 0xFFFFFFFFFFFFFFFFFFFFFFFFFFFFFFFFFFFFFFFFFFFFFFFFFFFFFFFFFFFFFFFF DUP3 SUB PUSH3 0x1B2 JUMPI PUSH3 0x1B1 PUSH3 0x137 JUMP JUMPDEST JUMPDEST PUSH1 0x1 DUP3 ADD SWAP1 POP SWAP2 SWAP1 POP JUMP JUMPDEST PUSH1 0x0 DUP2 MLOAD SWAP1 POP SWAP2 SWAP1 POP JUMP JUMPDEST PUSH32 0x4E487B7100000000000000000000000000000000000000000000000000000000 PUSH1 0x0 MSTORE PUSH1 0x41 PUSH1 0x4 MSTORE PUSH1 0x24 PUSH1 0x0 REVERT JUMPDEST PUSH32 0x4E487B7100000000000000000000000000000000000000000000000000000000 PUSH1 0x0 MSTORE PUSH1 0x22 PUSH1 0x4 MSTORE PUSH1 0x24 PUSH1 0x0 REVERT JUMPDEST PUSH1 0x0 PUSH1 0x2 DUP3 DIV SWAP1 POP PUSH1 0x1 DUP3 AND DUP1 PUSH3 0x23F JUMPI PUSH1 0x7F DUP3 AND SWAP2 POP JUMPDEST PUSH1 0x20 DUP3 LT DUP2 SUB PUSH3 0x255 JUMPI PUSH3 0x254 PUSH3 0x1F7 JUMP JUMPDEST JUMPDEST POP SWAP2 SWAP1 POP JUMP JUMPDEST PUSH1 0x0 DUP2 SWAP1 POP DUP2 PUSH1 0x0 MSTORE PUSH1 0x20 PUSH1 0x0 KECCAK256 SWAP1 POP SWAP2 SWAP1 POP JUMP JUMPDEST PUSH1 0x0 PUSH1 0x20 PUSH1 0x1F DUP4 ADD DIV SWAP1 POP SWAP2 SWAP1 POP JUMP JUMPDEST PUSH1 0x0 DUP3 DUP3 SHL SWAP1 POP SWAP3 SWAP2 POP POP JUMP JUMPDEST PUSH1 0x0 PUSH1 0x8 DUP4 MUL PUSH3 0x2BF PUSH32 0xFFFFFFFFFFFFFFFFFFFFFFFFFFFFFFFFFFFFFFFFFFFFFFFFFFFFFFFFFFFFFFFF DUP3 PUSH3 0x280 JUMP JUMPDEST PUSH3 0x2CB DUP7 DUP4 PUSH3 0x280 JUMP JUMPDEST SWAP6 POP DUP1 NOT DUP5 AND SWAP4 POP DUP1 DUP7 AND DUP5 OR SWAP3 POP POP POP SWAP4 SWAP3 POP POP POP JUMP JUMPDEST PUSH1 0x0 DUP2 SWAP1 POP SWAP2 SWAP1 POP JUMP JUMPDEST PUSH1 0x0 PUSH3 0x30E PUSH3 0x308 PUSH3 0x302 DUP5 PUSH3 0x166 JUMP JUMPDEST PUSH3 0x2E3 JUMP JUMPDEST PUSH3 0x166 JUMP JUMPDEST SWAP1 POP SWAP2 SWAP1 POP JUMP JUMPDEST PUSH1 0x0 DUP2 SWAP1 POP SWAP2 SWAP1 POP JUMP JUMPDEST PUSH3 0x32A DUP4 PUSH3 0x2ED JUMP JUMPDEST PUSH3 0x342 PUSH3 0x339 DUP3 PUSH3 0x315 JUMP JUMPDEST DUP5 DUP5 SLOAD PUSH3 0x28D JUMP JUMPDEST DUP3 SSTORE POP POP POP POP JUMP JUMPDEST PUSH1 0x0 SWAP1 JUMP JUMPDEST PUSH3 0x359 PUSH3 0x34A JUMP JUMPDEST PUSH3 0x366 DUP2 DUP5 DUP5 PUSH3 0x31F JUMP JUMPDEST POP POP POP JUMP JUMPDEST JUMPDEST DUP2 DUP2 LT ISZERO PUSH3 0x38E JUMPI PUSH3 0x382 PUSH1 0x0 DUP3 PUSH3 0x34F JUMP JUMPDEST PUSH1 0x1 DUP2 ADD SWAP1 POP PUSH3 0x36C JUMP JUMPDEST POP POP JUMP JUMPDEST PUSH1 0x1F DUP3 GT ISZERO PUSH3 0x3DD JUMPI PUSH3 0x3A7 DUP2 PUSH3 0x25B JUMP JUMPDEST PUSH3 0x3B2 DUP5 PUSH3 0x270 JUMP JUMPDEST DUP2 ADD PUSH1 0x20 DUP6 LT ISZERO PUSH3 0x3C2 JUMPI DUP2 SWAP1 POP JUMPDEST PUSH3 0x3DA PUSH3 0x3D1 DUP6 PUSH3 0x270 JUMP JUMPDEST DUP4 ADD DUP3 PUSH3 0x36B JUMP JUMPDEST POP POP JUMPDEST POP POP POP JUMP JUMPDEST PUSH1 0x0 DUP3 DUP3 SHR SWAP1 POP SWAP3 SWAP2 POP POP JUMP JUMPDEST PUSH1 0x0 PUSH3 0x402 PUSH1 0x0 NOT DUP5 PUSH1 0x8 MUL PUSH3 0x3E2 JUMP JUMPDEST NOT DUP1 DUP4 AND SWAP2 POP POP SWAP3 SWAP2 POP POP JUMP JUMPDEST PUSH1 0x0 PUSH3 0x41D DUP4 DUP4 PUSH3 0x3EF JUMP JUMPDEST SWAP2 POP DUP3 PUSH1 0x2 MUL DUP3 OR SWAP1 POP SWAP3 SWAP2 POP POP JUMP JUMPDEST PUSH3 0x438 DUP3 PUSH3 0x1BD JUMP JUMPDEST PUSH8 0xFFFFFFFFFFFFFFFF DUP2 GT ISZERO PUSH3 0x454 JUMPI PUSH3 0x453 PUSH3 0x1C8 JUMP JUMPDEST JUMPDEST PUSH3 0x460 DUP3 SLOAD PUSH3 0x226 JUMP JUMPDEST PUSH3 0x46D DUP3 DUP3 DUP6 PUSH3 0x392 JUMP JUMPDEST PUSH1 0x0 PUSH1 0x20 SWAP1 POP PUSH1 0x1F DUP4 GT PUSH1 0x1 DUP2 EQ PUSH3 0x4A5 JUMPI PUSH1 0x0 DUP5 ISZERO PUSH3 0x490 JUMPI DUP3 DUP8 ADD MLOAD SWAP1 POP JUMPDEST PUSH3 0x49C DUP6 DUP3 PUSH3 0x40F JUMP JUMPDEST DUP7 SSTORE POP PUSH3 0x50C JUMP JUMPDEST PUSH1 0x1F NOT DUP5 AND PUSH3 0x4B5 DUP7 PUSH3 0x25B JUMP JUMPDEST PUSH1 0x0 JUMPDEST DUP3 DUP2 LT ISZERO PUSH3 0x4DF JUMPI DUP5 DUP10 ADD MLOAD DUP3 SSTORE PUSH1 0x1 DUP3 ADD SWAP2 POP PUSH1 0x20 DUP6 ADD SWAP5 POP PUSH1 0x20 DUP2 ADD SWAP1 POP PUSH3 0x4B8 JUMP JUMPDEST DUP7 DUP4 LT ISZERO PUSH3 0x4FF JUMPI DUP5 DUP10 ADD MLOAD PUSH3 0x4FB PUSH1 0x1F DUP10 AND DUP3 PUSH3 0x3EF JUMP JUMPDEST DUP4 SSTORE POP JUMPDEST PUSH1 0x1 PUSH1 0x2 DUP9 MUL ADD DUP9 SSTORE POP POP POP JUMPDEST POP POP POP POP POP POP JUMP JUMPDEST PUSH3 0x51F DUP2 PUSH3 0x166 JUMP JUMPDEST DUP3 MSTORE POP POP JUMP JUMPDEST PUSH1 0x0 DUP3 DUP3 MSTORE PUSH1 0x20 DUP3 ADD SWAP1 POP SWAP3 SWAP2 POP POP JUMP JUMPDEST PUSH1 0x0 JUMPDEST DUP4 DUP2 LT ISZERO PUSH3 0x556 JUMPI DUP1 DUP3 ADD MLOAD DUP2 DUP5 ADD MSTORE PUSH1 0x20 DUP2 ADD SWAP1 POP PUSH3 0x539 JUMP JUMPDEST PUSH1 0x0 DUP5 DUP5 ADD MSTORE POP POP POP POP JUMP JUMPDEST PUSH1 0x0 PUSH1 0x1F NOT PUSH1 0x1F DUP4 ADD AND SWAP1 POP SWAP2 SWAP1 POP JUMP JUMPDEST PUSH1 0x0 PUSH3 0x580 DUP3 PUSH3 0x1BD JUMP JUMPDEST PUSH3 0x58C DUP2 DUP6 PUSH3 0x525 JUMP JUMPDEST SWAP4 POP PUSH3 0x59E DUP2 DUP6 PUSH1 0x20 DUP7 ADD PUSH3 0x536 JUMP JUMPDEST PUSH3 0x5A9 DUP2 PUSH3 0x562 JUMP JUMPDEST DUP5 ADD SWAP2 POP POP SWAP3 SWAP2 POP POP JUMP JUMPDEST PUSH1 0x0 DUP2 ISZERO ISZERO SWAP1 POP SWAP2 SWAP1 POP JUMP JUMPDEST PUSH3 0x5CB DUP2 PUSH3 0x5B4 JUMP JUMPDEST DUP3 MSTORE POP POP JUMP JUMPDEST PUSH1 0x0 PUSH1 0x60 DUP3 ADD SWAP1 POP PUSH3 0x5E8 PUSH1 0x0 DUP4 ADD DUP7 PUSH3 0x514 JUMP JUMPDEST DUP2 DUP2 SUB PUSH1 0x20 DUP4 ADD MSTORE PUSH3 0x5FC DUP2 DUP6 PUSH3 0x573 JUMP JUMPDEST SWAP1 POP PUSH3 0x60D PUSH1 0x40 DUP4 ADD DUP5 PUSH3 0x5C0 JUMP JUMPDEST SWAP5 SWAP4 POP POP POP POP JUMP JUMPDEST PUSH2 0xAAF DUP1 PUSH3 0x625 PUSH1 0x0 CODECOPY PUSH1 0x0 RETURN INVALID PUSH1 0x80 PUSH1 0x40 MSTORE CALLVALUE DUP1 ISZERO PUSH2 0x10 JUMPI PUSH1 0x0 DUP1 REVERT JUMPDEST POP PUSH1 0x4 CALLDATASIZE LT PUSH2 0x4C JUMPI PUSH1 0x0 CALLDATALOAD PUSH1 0xE0 SHR DUP1 PUSH4 0x111002AA EQ PUSH2 0x51 JUMPI DUP1 PUSH4 0x51DB2E76 EQ PUSH2 0x6D JUMPI DUP1 PUSH4 0x8D977672 EQ PUSH2 0x89 JUMPI DUP1 PUSH4 0xB6CB58A5 EQ PUSH2 0xBB JUMPI JUMPDEST PUSH1 0x0 DUP1 REVERT JUMPDEST PUSH2 0x6B PUSH1 0x4 DUP1 CALLDATASIZE SUB DUP2 ADD SWAP1 PUSH2 0x66 SWAP2 SWAP1 PUSH2 0x54D JUMP JUMPDEST PUSH2 0xD9 JUMP JUMPDEST STOP JUMPDEST PUSH2 0x87 PUSH1 0x4 DUP1 CALLDATASIZE SUB DUP2 ADD SWAP1 PUSH2 0x82 SWAP2 SWAP1 PUSH2 0x5CC JUMP JUMPDEST PUSH2 0x1A8 JUMP JUMPDEST STOP JUMPDEST PUSH2 0xA3 PUSH1 0x4 DUP1 CALLDATASIZE SUB DUP2 ADD SWAP1 PUSH2 0x9E SWAP2 SWAP1 PUSH2 0x5CC JUMP JUMPDEST PUSH2 0x32E JUMP JUMPDEST PUSH1 0x40 MLOAD PUSH2 0xB2 SWAP4 SWAP3 SWAP2 SWAP1 PUSH2 0x6A2 JUMP JUMPDEST PUSH1 0x40 MLOAD DUP1 SWAP2 SUB SWAP1 RETURN JUMPDEST PUSH2 0xC3 PUSH2 0x3ED JUMP JUMPDEST PUSH1 0x40 MLOAD PUSH2 0xD0 SWAP2 SWAP1 PUSH2 0x6E0 JUMP JUMPDEST PUSH1 0x40 MLOAD DUP1 SWAP2 SUB SWAP1 RETURN JUMPDEST PUSH1 0x0 DUP1 DUP2 SLOAD DUP1 SWAP3 SWAP2 SWAP1 PUSH2 0xEB SWAP1 PUSH2 0x72A JUMP JUMPDEST SWAP2 SWAP1 POP SSTORE POP PUSH1 0x40 MLOAD DUP1 PUSH1 0x60 ADD PUSH1 0x40 MSTORE DUP1 PUSH1 0x0 SLOAD DUP2 MSTORE PUSH1 0x20 ADD DUP3 DUP2 MSTORE PUSH1 0x20 ADD PUSH1 0x0 ISZERO ISZERO DUP2 MSTORE POP PUSH1 0x1 PUSH1 0x0 DUP1 SLOAD DUP2 MSTORE PUSH1 0x20 ADD SWAP1 DUP2 MSTORE PUSH1 0x20 ADD PUSH1 0x0 KECCAK256 PUSH1 0x0 DUP3 ADD MLOAD DUP2 PUSH1 0x0 ADD SSTORE PUSH1 0x20 DUP3 ADD MLOAD DUP2 PUSH1 0x1 ADD SWAP1 DUP2 PUSH2 0x143 SWAP2 SWAP1 PUSH2 0x97E JUMP JUMPDEST POP PUSH1 0x40 DUP3 ADD MLOAD DUP2 PUSH1 0x2 ADD PUSH1 0x0 PUSH2 0x100 EXP DUP2 SLOAD DUP2 PUSH1 0xFF MUL NOT AND SWAP1 DUP4 ISZERO ISZERO MUL OR SWAP1 SSTORE POP SWAP1 POP POP PUSH32 0x5D0FB833127FC08168556D0E7CA9554FC3F6BC843B3B7D2BF1C35AEA6BAB660 PUSH1 0x0 SLOAD DUP3 PUSH1 0x0 PUSH1 0x40 MLOAD PUSH2 0x19D SWAP4 SWAP3 SWAP2 SWAP1 PUSH2 0x6A2 JUMP JUMPDEST PUSH1 0x40 MLOAD DUP1 SWAP2 SUB SWAP1 LOG1 POP JUMP JUMPDEST PUSH1 0x0 PUSH1 0x1 PUSH1 0x0 DUP4 DUP2 MSTORE PUSH1 0x20 ADD SWAP1 DUP2 MSTORE PUSH1 0x20 ADD PUSH1 0x0 KECCAK256 PUSH1 0x40 MLOAD DUP1 PUSH1 0x60 ADD PUSH1 0x40 MSTORE SWAP1 DUP2 PUSH1 0x0 DUP3 ADD SLOAD DUP2 MSTORE PUSH1 0x20 ADD PUSH1 0x1 DUP3 ADD DUP1 SLOAD PUSH2 0x1E2 SWAP1 PUSH2 0x7A1 JUMP JUMPDEST DUP1 PUSH1 0x1F ADD PUSH1 0x20 DUP1 SWAP2 DIV MUL PUSH1 0x20 ADD PUSH1 0x40 MLOAD SWAP1 DUP2 ADD PUSH1 0x40 MSTORE DUP1 SWAP3 SWAP2 SWAP1 DUP2 DUP2 MSTORE PUSH1 0x20 ADD DUP3 DUP1 SLOAD PUSH2 0x20E SWAP1 PUSH2 0x7A1 JUMP JUMPDEST DUP1 ISZERO PUSH2 0x25B JUMPI DUP1 PUSH1 0x1F LT PUSH2 0x230 JUMPI PUSH2 0x100 DUP1 DUP4 SLOAD DIV MUL DUP4 MSTORE SWAP2 PUSH1 0x20 ADD SWAP2 PUSH2 0x25B JUMP JUMPDEST DUP3 ADD SWAP2 SWAP1 PUSH1 0x0 MSTORE PUSH1 0x20 PUSH1 0x0 KECCAK256 SWAP1 JUMPDEST DUP2 SLOAD DUP2 MSTORE SWAP1 PUSH1 0x1 ADD SWAP1 PUSH1 0x20 ADD DUP1 DUP4 GT PUSH2 0x23E JUMPI DUP3 SWAP1 SUB PUSH1 0x1F AND DUP3 ADD SWAP2 JUMPDEST POP POP POP POP POP DUP2 MSTORE PUSH1 0x20 ADD PUSH1 0x2 DUP3 ADD PUSH1 0x0 SWAP1 SLOAD SWAP1 PUSH2 0x100 EXP SWAP1 DIV PUSH1 0xFF AND ISZERO ISZERO ISZERO ISZERO DUP2 MSTORE POP POP SWAP1 POP DUP1 PUSH1 0x40 ADD MLOAD ISZERO DUP2 PUSH1 0x40 ADD SWAP1 ISZERO ISZERO SWAP1 DUP2 ISZERO ISZERO DUP2 MSTORE POP POP DUP1 PUSH1 0x1 PUSH1 0x0 DUP5 DUP2 MSTORE PUSH1 0x20 ADD SWAP1 DUP2 MSTORE PUSH1 0x20 ADD PUSH1 0x0 KECCAK256 PUSH1 0x0 DUP3 ADD MLOAD DUP2 PUSH1 0x0 ADD SSTORE PUSH1 0x20 DUP3 ADD MLOAD DUP2 PUSH1 0x1 ADD SWAP1 DUP2 PUSH2 0x2C9 SWAP2 SWAP1 PUSH2 0x97E JUMP JUMPDEST POP PUSH1 0x40 DUP3 ADD MLOAD DUP2 PUSH1 0x2 ADD PUSH1 0x0 PUSH2 0x100 EXP DUP2 SLOAD DUP2 PUSH1 0xFF MUL NOT AND SWAP1 DUP4 ISZERO ISZERO MUL OR SWAP1 SSTORE POP SWAP1 POP POP PUSH32 0xACCF26A040A80E6A25119CB39DA293FF807081080159D2C6DB82F9C60077EA4C DUP3 DUP3 PUSH1 0x40 ADD MLOAD PUSH1 0x40 MLOAD PUSH2 0x322 SWAP3 SWAP2 SWAP1 PUSH2 0xA50 JUMP JUMPDEST PUSH1 0x40 MLOAD DUP1 SWAP2 SUB SWAP1 LOG1 POP POP JUMP JUMPDEST PUSH1 0x1 PUSH1 0x20 MSTORE DUP1 PUSH1 0x0 MSTORE PUSH1 0x40 PUSH1 0x0 KECCAK256 PUSH1 0x0 SWAP2 POP SWAP1 POP DUP1 PUSH1 0x0 ADD SLOAD SWAP1 DUP1 PUSH1 0x1 ADD DUP1 SLOAD PUSH2 0x357 SWAP1 PUSH2 0x7A1 JUMP JUMPDEST DUP1 PUSH1 0x1F ADD PUSH1 0x20 DUP1 SWAP2 DIV MUL PUSH1 0x20 ADD PUSH1 0x40 MLOAD SWAP1 DUP2 ADD PUSH1 0x40 MSTORE DUP1 SWAP3 SWAP2 SWAP1 DUP2 DUP2 MSTORE PUSH1 0x20 ADD DUP3 DUP1 SLOAD PUSH2 0x383 SWAP1 PUSH2 0x7A1 JUMP JUMPDEST DUP1 ISZERO PUSH2 0x3D0 JUMPI DUP1 PUSH1 0x1F LT PUSH2 0x3A5 JUMPI PUSH2 0x100 DUP1 DUP4 SLOAD DIV MUL DUP4 MSTORE SWAP2 PUSH1 0x20 ADD SWAP2 PUSH2 0x3D0 JUMP JUMPDEST DUP3 ADD SWAP2 SWAP1 PUSH1 0x0 MSTORE PUSH1 0x20 PUSH1 0x0 KECCAK256 SWAP1 JUMPDEST DUP2 SLOAD DUP2 MSTORE SWAP1 PUSH1 0x1 ADD SWAP1 PUSH1 0x20 ADD DUP1 DUP4 GT PUSH2 0x3B3 JUMPI DUP3 SWAP1 SUB PUSH1 0x1F AND DUP3 ADD SWAP2 JUMPDEST POP POP POP POP POP SWAP1 DUP1 PUSH1 0x2 ADD PUSH1 0x0 SWAP1 SLOAD SWAP1 PUSH2 0x100 EXP SWAP1 DIV PUSH1 0xFF AND SWAP1 POP DUP4 JUMP JUMPDEST PUSH1 0x0 SLOAD DUP2 JUMP JUMPDEST PUSH1 0x0 PUSH1 0x40 MLOAD SWAP1 POP SWAP1 JUMP JUMPDEST PUSH1 0x0 DUP1 REVERT JUMPDEST PUSH1 0x0 DUP1 REVERT JUMPDEST PUSH1 0x0 DUP1 REVERT JUMPDEST PUSH1 0x0 DUP1 REVERT JUMPDEST PUSH1 0x0 PUSH1 0x1F NOT PUSH1 0x1F DUP4 ADD AND SWAP1 POP SWAP2 SWAP1 POP JUMP JUMPDEST PUSH32 0x4E487B7100000000000000000000000000000000000000000000000000000000 PUSH1 0x0 MSTORE PUSH1 0x41 PUSH1 0x4 MSTORE PUSH1 0x24 PUSH1 0x0 REVERT JUMPDEST PUSH2 0x45A DUP3 PUSH2 0x411 JUMP JUMPDEST DUP2 ADD DUP2 DUP2 LT PUSH8 0xFFFFFFFFFFFFFFFF DUP3 GT OR ISZERO PUSH2 0x479 JUMPI PUSH2 0x478 PUSH2 0x422 JUMP JUMPDEST JUMPDEST DUP1 PUSH1 0x40 MSTORE POP POP POP JUMP JUMPDEST PUSH1 0x0 PUSH2 0x48C PUSH2 0x3F3 JUMP JUMPDEST SWAP1 POP PUSH2 0x498 DUP3 DUP3 PUSH2 0x451 JUMP JUMPDEST SWAP2 SWAP1 POP JUMP JUMPDEST PUSH1 0x0 PUSH8 0xFFFFFFFFFFFFFFFF DUP3 GT ISZERO PUSH2 0x4B8 JUMPI PUSH2 0x4B7 PUSH2 0x422 JUMP JUMPDEST JUMPDEST PUSH2 0x4C1 DUP3 PUSH2 0x411 JUMP JUMPDEST SWAP1 POP PUSH1 0x20 DUP2 ADD SWAP1 POP SWAP2 SWAP1 POP JUMP JUMPDEST DUP3 DUP2 DUP4 CALLDATACOPY PUSH1 0x0 DUP4 DUP4 ADD MSTORE POP POP POP JUMP JUMPDEST PUSH1 0x0 PUSH2 0x4F0 PUSH2 0x4EB DUP5 PUSH2 0x49D JUMP JUMPDEST PUSH2 0x482 JUMP JUMPDEST SWAP1 POP DUP3 DUP2 MSTORE PUSH1 0x20 DUP2 ADD DUP5 DUP5 DUP5 ADD GT ISZERO PUSH2 0x50C JUMPI PUSH2 0x50B PUSH2 0x40C JUMP JUMPDEST JUMPDEST PUSH2 0x517 DUP5 DUP3 DUP6 PUSH2 0x4CE JUMP JUMPDEST POP SWAP4 SWAP3 POP POP POP JUMP JUMPDEST PUSH1 0x0 DUP3 PUSH1 0x1F DUP4 ADD SLT PUSH2 0x534 JUMPI PUSH2 0x533 PUSH2 0x407 JUMP JUMPDEST JUMPDEST DUP2 CALLDATALOAD PUSH2 0x544 DUP5 DUP3 PUSH1 0x20 DUP7 ADD PUSH2 0x4DD JUMP JUMPDEST SWAP2 POP POP SWAP3 SWAP2 POP POP JUMP JUMPDEST PUSH1 0x0 PUSH1 0x20 DUP3 DUP5 SUB SLT ISZERO PUSH2 0x563 JUMPI PUSH2 0x562 PUSH2 0x3FD JUMP JUMPDEST JUMPDEST PUSH1 0x0 DUP3 ADD CALLDATALOAD PUSH8 0xFFFFFFFFFFFFFFFF DUP2 GT ISZERO PUSH2 0x581 JUMPI PUSH2 0x580 PUSH2 0x402 JUMP JUMPDEST JUMPDEST PUSH2 0x58D DUP5 DUP3 DUP6 ADD PUSH2 0x51F JUMP JUMPDEST SWAP2 POP POP SWAP3 SWAP2 POP POP JUMP JUMPDEST PUSH1 0x0 DUP2 SWAP1 POP SWAP2 SWAP1 POP JUMP JUMPDEST PUSH2 0x5A9 DUP2 PUSH2 0x596 JUMP JUMPDEST DUP2 EQ PUSH2 0x5B4 JUMPI PUSH1 0x0 DUP1 REVERT JUMPDEST POP JUMP JUMPDEST PUSH1 0x0 DUP2 CALLDATALOAD SWAP1 POP PUSH2 0x5C6 DUP2 PUSH2 0x5A0 JUMP JUMPDEST SWAP3 SWAP2 POP POP JUMP JUMPDEST PUSH1 0x0 PUSH1 0x20 DUP3 DUP5 SUB SLT ISZERO PUSH2 0x5E2 JUMPI PUSH2 0x5E1 PUSH2 0x3FD JUMP JUMPDEST JUMPDEST PUSH1 0x0 PUSH2 0x5F0 DUP5 DUP3 DUP6 ADD PUSH2 0x5B7 JUMP JUMPDEST SWAP2 POP POP SWAP3 SWAP2 POP POP JUMP JUMPDEST PUSH2 0x602 DUP2 PUSH2 0x596 JUMP JUMPDEST DUP3 MSTORE POP POP JUMP JUMPDEST PUSH1 0x0 DUP2 MLOAD SWAP1 POP SWAP2 SWAP1 POP JUMP JUMPDEST PUSH1 0x0 DUP3 DUP3 MSTORE PUSH1 0x20 DUP3 ADD SWAP1 POP SWAP3 SWAP2 POP POP JUMP JUMPDEST PUSH1 0x0 JUMPDEST DUP4 DUP2 LT ISZERO PUSH2 0x642 JUMPI DUP1 DUP3 ADD MLOAD DUP2 DUP5 ADD MSTORE PUSH1 0x20 DUP2 ADD SWAP1 POP PUSH2 0x627 JUMP JUMPDEST PUSH1 0x0 DUP5 DUP5 ADD MSTORE POP POP POP POP JUMP JUMPDEST PUSH1 0x0 PUSH2 0x659 DUP3 PUSH2 0x608 JUMP JUMPDEST PUSH2 0x663 DUP2 DUP6 PUSH2 0x613 JUMP JUMPDEST SWAP4 POP PUSH2 0x673 DUP2 DUP6 PUSH1 0x20 DUP7 ADD PUSH2 0x624 JUMP JUMPDEST PUSH2 0x67C DUP2 PUSH2 0x411 JUMP JUMPDEST DUP5 ADD SWAP2 POP POP SWAP3 SWAP2 POP POP JUMP JUMPDEST PUSH1 0x0 DUP2 ISZERO ISZERO SWAP1 POP SWAP2 SWAP1 POP JUMP JUMPDEST PUSH2 0x69C DUP2 PUSH2 0x687 JUMP JUMPDEST DUP3 MSTORE POP POP JUMP JUMPDEST PUSH1 0x0 PUSH1 0x60 DUP3 ADD SWAP1 POP PUSH2 0x6B7 PUSH1 0x0 DUP4 ADD DUP7 PUSH2 0x5F9 JUMP JUMPDEST DUP2 DUP2 SUB PUSH1 0x20 DUP4 ADD MSTORE PUSH2 0x6C9 DUP2 DUP6 PUSH2 0x64E JUMP JUMPDEST SWAP1 POP PUSH2 0x6D8 PUSH1 0x40 DUP4 ADD DUP5 PUSH2 0x693 JUMP JUMPDEST SWAP5 SWAP4 POP POP POP POP JUMP JUMPDEST PUSH1 0x0 PUSH1 0x20 DUP3 ADD SWAP1 POP PUSH2 0x6F5 PUSH1 0x0 DUP4 ADD DUP5 PUSH2 0x5F9 JUMP JUMPDEST SWAP3 SWAP2 POP POP JUMP JUMPDEST PUSH32 0x4E487B7100000000000000000000000000000000000000000000000000000000 PUSH1 0x0 MSTORE PUSH1 0x11 PUSH1 0x4 MSTORE PUSH1 0x24 PUSH1 0x0 REVERT JUMPDEST PUSH1 0x0 PUSH2 0x735 DUP3 PUSH2 0x596 JUMP JUMPDEST SWAP2 POP PUSH32 0xFFFFFFFFFFFFFFFFFFFFFFFFFFFFFFFFFFFFFFFFFFFFFFFFFFFFFFFFFFFFFFFF DUP3 SUB PUSH2 0x767 JUMPI PUSH2 0x766 PUSH2 0x6FB JUMP JUMPDEST JUMPDEST PUSH1 0x1 DUP3 ADD SWAP1 POP SWAP2 SWAP1 POP JUMP JUMPDEST PUSH32 0x4E487B7100000000000000000000000000000000000000000000000000000000 PUSH1 0x0 MSTORE PUSH1 0x22 PUSH1 0x4 MSTORE PUSH1 0x24 PUSH1 0x0 REVERT JUMPDEST PUSH1 0x0 PUSH1 0x2 DUP3 DIV SWAP1 POP PUSH1 0x1 DUP3 AND DUP1 PUSH2 0x7B9 JUMPI PUSH1 0x7F DUP3 AND SWAP2 POP JUMPDEST PUSH1 0x20 DUP3 LT DUP2 SUB PUSH2 0x7CC JUMPI PUSH2 0x7CB PUSH2 0x772 JUMP JUMPDEST JUMPDEST POP SWAP2 SWAP1 POP JUMP JUMPDEST PUSH1 0x0 DUP2 SWAP1 POP DUP2 PUSH1 0x0 MSTORE PUSH1 0x20 PUSH1 0x0 KECCAK256 SWAP1 POP SWAP2 SWAP1 POP JUMP JUMPDEST PUSH1 0x0 PUSH1 0x20 PUSH1 0x1F DUP4 ADD DIV SWAP1 POP SWAP2 SWAP1 POP JUMP JUMPDEST PUSH1 0x0 DUP3 DUP3 SHL SWAP1 POP SWAP3 SWAP2 POP POP JUMP JUMPDEST PUSH1 0x0 PUSH1 0x8 DUP4 MUL PUSH2 0x834 PUSH32 0xFFFFFFFFFFFFFFFFFFFFFFFFFFFFFFFFFFFFFFFFFFFFFFFFFFFFFFFFFFFFFFFF DUP3 PUSH2 0x7F7 JUMP JUMPDEST PUSH2 0x83E DUP7 DUP4 PUSH2 0x7F7 JUMP JUMPDEST SWAP6 POP DUP1 NOT DUP5 AND SWAP4 POP DUP1 DUP7 AND DUP5 OR SWAP3 POP POP POP SWAP4 SWAP3 POP POP POP JUMP JUMPDEST PUSH1 0x0 DUP2 SWAP1 POP SWAP2 SWAP1 POP JUMP JUMPDEST PUSH1 0x0 PUSH2 0x87B PUSH2 0x876 PUSH2 0x871 DUP5 PUSH2 0x596 JUMP JUMPDEST PUSH2 0x856 JUMP JUMPDEST PUSH2 0x596 JUMP JUMPDEST SWAP1 POP SWAP2 SWAP1 POP JUMP JUMPDEST PUSH1 0x0 DUP2 SWAP1 POP SWAP2 SWAP1 POP JUMP JUMPDEST PUSH2 0x895 DUP4 PUSH2 0x860 JUMP JUMPDEST PUSH2 0x8A9 PUSH2 0x8A1 DUP3 PUSH2 0x882 JUMP JUMPDEST DUP5 DUP5 SLOAD PUSH2 0x804 JUMP JUMPDEST DUP3 SSTORE POP POP POP POP JUMP JUMPDEST PUSH1 0x0 SWAP1 JUMP JUMPDEST PUSH2 0x8BE PUSH2 0x8B1 JUMP JUMPDEST PUSH2 0x8C9 DUP2 DUP5 DUP5 PUSH2 0x88C JUMP JUMPDEST POP POP POP JUMP JUMPDEST JUMPDEST DUP2 DUP2 LT ISZERO PUSH2 0x8ED JUMPI PUSH2 0x8E2 PUSH1 0x0 DUP3 PUSH2 0x8B6 JUMP JUMPDEST PUSH1 0x1 DUP2 ADD SWAP1 POP PUSH2 0x8CF JUMP JUMPDEST POP POP JUMP JUMPDEST PUSH1 0x1F DUP3 GT ISZERO PUSH2 0x932 JUMPI PUSH2 0x903 DUP2 PUSH2 0x7D2 JUMP JUMPDEST PUSH2 0x90C DUP5 PUSH2 0x7E7 JUMP JUMPDEST DUP2 ADD PUSH1 0x20 DUP6 LT ISZERO PUSH2 0x91B JUMPI DUP2 SWAP1 POP JUMPDEST PUSH2 0x92F PUSH2 0x927 DUP6 PUSH2 0x7E7 JUMP JUMPDEST DUP4 ADD DUP3 PUSH2 0x8CE JUMP JUMPDEST POP POP JUMPDEST POP POP POP JUMP JUMPDEST PUSH1 0x0 DUP3 DUP3 SHR SWAP1 POP SWAP3 SWAP2 POP POP JUMP JUMPDEST PUSH1 0x0 PUSH2 0x955 PUSH1 0x0 NOT DUP5 PUSH1 0x8 MUL PUSH2 0x937 JUMP JUMPDEST NOT DUP1 DUP4 AND SWAP2 POP POP SWAP3 SWAP2 POP POP JUMP JUMPDEST PUSH1 0x0 PUSH2 0x96E DUP4 DUP4 PUSH2 0x944 JUMP JUMPDEST SWAP2 POP DUP3 PUSH1 0x2 MUL DUP3 OR SWAP1 POP SWAP3 SWAP2 POP POP JUMP JUMPDEST PUSH2 0x987 DUP3 PUSH2 0x608 JUMP JUMPDEST PUSH8 0xFFFFFFFFFFFFFFFF DUP2 GT ISZERO PUSH2 0x9A0 JUMPI PUSH2 0x99F PUSH2 0x422 JUMP JUMPDEST JUMPDEST PUSH2 0x9AA DUP3 SLOAD PUSH2 0x7A1 JUMP JUMPDEST PUSH2 0x9B5 DUP3 DUP3 DUP6 PUSH2 0x8F1 JUMP JUMPDEST PUSH1 0x0 PUSH1 0x20 SWAP1 POP PUSH1 0x1F DUP4 GT PUSH1 0x1 DUP2 EQ PUSH2 0x9E8 JUMPI PUSH1 0x0 DUP5 ISZERO PUSH2 0x9D6 JUMPI DUP3 DUP8 ADD MLOAD SWAP1 POP JUMPDEST PUSH2 0x9E0 DUP6 DUP3 PUSH2 0x962 JUMP JUMPDEST DUP7 SSTORE POP PUSH2 0xA48 JUMP JUMPDEST PUSH1 0x1F NOT DUP5 AND PUSH2 0x9F6 DUP7 PUSH2 0x7D2 JUMP JUMPDEST PUSH1 0x0 JUMPDEST DUP3 DUP2 LT ISZERO PUSH2 0xA1E JUMPI DUP5 DUP10 ADD MLOAD DUP3 SSTORE PUSH1 0x1 DUP3 ADD SWAP2 POP PUSH1 0x20 DUP6 ADD SWAP5 POP PUSH1 0x20 DUP2 ADD SWAP1 POP PUSH2 0x9F9 JUMP JUMPDEST DUP7 DUP4 LT ISZERO PUSH2 0xA3B JUMPI DUP5 DUP10 ADD MLOAD PUSH2 0xA37 PUSH1 0x1F DUP10 AND DUP3 PUSH2 0x944 JUMP JUMPDEST DUP4 SSTORE POP JUMPDEST PUSH1 0x1 PUSH1 0x2 DUP9 MUL ADD DUP9 SSTORE POP POP POP JUMPDEST POP POP POP POP POP POP JUMP JUMPDEST PUSH1 0x0 PUSH1 0x40 DUP3 ADD SWAP1 POP PUSH2 0xA65 PUSH1 0x0 DUP4 ADD DUP6 PUSH2 0x5F9 JUMP JUMPDEST PUSH2 0xA72 PUSH1 0x20 DUP4 ADD DUP5 PUSH2 0x693 JUMP JUMPDEST SWAP4 SWAP3 POP POP POP JUMP INVALID LOG2 PUSH5 0x6970667358 0x22 SLT KECCAK256 NOT 0xD9 LOG3 SWAP10 SLOAD 0xDA SELFDESTRUCT ORIGIN PUSH9 0x29DBEFF971D323907C PUSH3 0xB15AA0 0xE7 PUSH2 0x1C6D 0x22 DUP7 DUP14 SHR DUP4 SWAP12 PUSH5 0x736F6C6343 STOP ADDMOD XOR STOP CALLER "
        },
        "methodIdentifiers": {
          "createTask(string)": "111002aa",
          "taskCount()": "b6cb58a5",
          "tasks(uint256)": "8d977672",
          "toggleStatus(uint256)": "51db2e76"
        }
      }
    }
  }
}