{
  "_format": "hh-sol-artifact-1",
  "contractName": "SendMrw",
  "sourceName": "contracts/SendMrw.sol",
  "abi": [
    {
      "inputs": [],
      "stateMutability": "nonpayable",
      "type": "constructor"
    },
    {
      "inputs": [
        {
          "internalType": "address",
          "name": "spender",
          "type": "address"
        },
        {
          "internalType": "uint256",
          "name": "allowance",
          "type": "uint256"
        },
        {
          "internalType": "uint256",
          "name": "needed",
          "type": "uint256"
        }
      ],
      "name": "ERC20InsufficientAllowance",
      "type": "error"
    },
    {
      "inputs": [
        {
          "internalType": "address",
          "name": "sender",
          "type": "address"
        },
        {
          "internalType": "uint256",
          "name": "balance",
          "type": "uint256"
        },
        {
          "internalType": "uint256",
          "name": "needed",
          "type": "uint256"
        }
      ],
      "name": "ERC20InsufficientBalance",
      "type": "error"
    },
    {
      "inputs": [
        {
          "internalType": "address",
          "name": "approver",
          "type": "address"
        }
      ],
      "name": "ERC20InvalidApprover",
      "type": "error"
    },
    {
      "inputs": [
        {
          "internalType": "address",
          "name": "receiver",
          "type": "address"
        }
      ],
      "name": "ERC20InvalidReceiver",
      "type": "error"
    },
    {
      "inputs": [
        {
          "internalType": "address",
          "name": "sender",
          "type": "address"
        }
      ],
      "name": "ERC20InvalidSender",
      "type": "error"
    },
    {
      "inputs": [
        {
          "internalType": "address",
          "name": "spender",
          "type": "address"
        }
      ],
      "name": "ERC20InvalidSpender",
      "type": "error"
    },
    {
      "anonymous": false,
      "inputs": [
        {
          "indexed": true,
          "internalType": "address",
          "name": "owner",
          "type": "address"
        },
        {
          "indexed": true,
          "internalType": "address",
          "name": "spender",
          "type": "address"
        },
        {
          "indexed": false,
          "internalType": "uint256",
          "name": "value",
          "type": "uint256"
        }
      ],
      "name": "Approval",
      "type": "event"
    },
    {
      "anonymous": false,
      "inputs": [
        {
          "indexed": false,
          "internalType": "string",
          "name": "description",
          "type": "string"
        },
        {
          "indexed": true,
          "internalType": "address",
          "name": "_from",
          "type": "address"
        },
        {
          "indexed": false,
          "internalType": "uint256",
          "name": "_n",
          "type": "uint256"
        }
      ],
      "name": "LogNewAlert",
      "type": "event"
    },
    {
      "anonymous": false,
      "inputs": [
        {
          "indexed": true,
          "internalType": "address",
          "name": "from",
          "type": "address"
        },
        {
          "indexed": true,
          "internalType": "address",
          "name": "to",
          "type": "address"
        },
        {
          "indexed": false,
          "internalType": "uint256",
          "name": "value",
          "type": "uint256"
        }
      ],
      "name": "Transfer",
      "type": "event"
    },
    {
      "inputs": [],
      "name": "_reward",
      "outputs": [],
      "stateMutability": "nonpayable",
      "type": "function"
    },
    {
      "inputs": [
        {
          "internalType": "address",
          "name": "owner",
          "type": "address"
        },
        {
          "internalType": "address",
          "name": "spender",
          "type": "address"
        }
      ],
      "name": "allowance",
      "outputs": [
        {
          "internalType": "uint256",
          "name": "",
          "type": "uint256"
        }
      ],
      "stateMutability": "view",
      "type": "function"
    },
    {
      "inputs": [
        {
          "internalType": "address",
          "name": "spender",
          "type": "address"
        },
        {
          "internalType": "uint256",
          "name": "value",
          "type": "uint256"
        }
      ],
      "name": "approve",
      "outputs": [
        {
          "internalType": "bool",
          "name": "",
          "type": "bool"
        }
      ],
      "stateMutability": "nonpayable",
      "type": "function"
    },
    {
      "inputs": [
        {
          "internalType": "address",
          "name": "account",
          "type": "address"
        }
      ],
      "name": "balanceOf",
      "outputs": [
        {
          "internalType": "uint256",
          "name": "",
          "type": "uint256"
        }
      ],
      "stateMutability": "view",
      "type": "function"
    },
    {
      "inputs": [],
      "name": "decimals",
      "outputs": [
        {
          "internalType": "uint8",
          "name": "",
          "type": "uint8"
        }
      ],
      "stateMutability": "view",
      "type": "function"
    },
    {
      "inputs": [],
      "name": "name",
      "outputs": [
        {
          "internalType": "string",
          "name": "",
          "type": "string"
        }
      ],
      "stateMutability": "view",
      "type": "function"
    },
    {
      "inputs": [],
      "name": "symbol",
      "outputs": [
        {
          "internalType": "string",
          "name": "",
          "type": "string"
        }
      ],
      "stateMutability": "view",
      "type": "function"
    },
    {
      "inputs": [],
      "name": "totalSupply",
      "outputs": [
        {
          "internalType": "uint256",
          "name": "",
          "type": "uint256"
        }
      ],
      "stateMutability": "view",
      "type": "function"
    },
    {
      "inputs": [
        {
          "internalType": "address",
          "name": "to",
          "type": "address"
        },
        {
          "internalType": "uint256",
          "name": "value",
          "type": "uint256"
        }
      ],
      "name": "transfer",
      "outputs": [
        {
          "internalType": "bool",
          "name": "",
          "type": "bool"
        }
      ],
      "stateMutability": "nonpayable",
      "type": "function"
    },
    {
      "inputs": [
        {
          "internalType": "address",
          "name": "from",
          "type": "address"
        },
        {
          "internalType": "address",
          "name": "to",
          "type": "address"
        },
        {
          "internalType": "uint256",
          "name": "value",
          "type": "uint256"
        }
      ],
      "name": "transferFrom",
      "outputs": [
        {
          "internalType": "bool",
          "name": "",
          "type": "bool"
        }
      ],
      "stateMutability": "nonpayable",
      "type": "function"
    }
  ],
  "bytecode": "0x6080604052738d1b00dd96f50e6140898e55fb9dae8049c82678600560006101000a81548173ffffffffffffffffffffffffffffffffffffffff021916908373ffffffffffffffffffffffffffffffffffffffff1602179055503480156200006657600080fd5b506040518060400160405280600b81526020017f4d696e65725265776172640000000000000000000000000000000000000000008152506040518060400160405280600381526020017f4d525700000000000000000000000000000000000000000000000000000000008152508160039081620000e4919062000379565b508060049081620000f6919062000379565b50505062000460565b600081519050919050565b7f4e487b7100000000000000000000000000000000000000000000000000000000600052604160045260246000fd5b7f4e487b7100000000000000000000000000000000000000000000000000000000600052602260045260246000fd5b600060028204905060018216806200018157607f821691505b60208210810362000197576200019662000139565b5b50919050565b60008190508160005260206000209050919050565b60006020601f8301049050919050565b600082821b905092915050565b600060088302620002017fffffffffffffffffffffffffffffffffffffffffffffffffffffffffffffffff82620001c2565b6200020d8683620001c2565b95508019841693508086168417925050509392505050565b6000819050919050565b6000819050919050565b60006200025a620002546200024e8462000225565b6200022f565b62000225565b9050919050565b6000819050919050565b620002768362000239565b6200028e620002858262000261565b848454620001cf565b825550505050565b600090565b620002a562000296565b620002b28184846200026b565b505050565b5b81811015620002da57620002ce6000826200029b565b600181019050620002b8565b5050565b601f8211156200032957620002f3816200019d565b620002fe84620001b2565b810160208510156200030e578190505b620003266200031d85620001b2565b830182620002b7565b50505b505050565b600082821c905092915050565b60006200034e600019846008026200032e565b1980831691505092915050565b60006200036983836200033b565b9150826002028217905092915050565b6200038482620000ff565b67ffffffffffffffff811115620003a0576200039f6200010a565b5b620003ac825462000168565b620003b9828285620002de565b600060209050601f831160018114620003f15760008415620003dc578287015190505b620003e885826200035b565b86555062000458565b601f19841662000401866200019d565b60005b828110156200042b5784890151825560018201915060208501945060208101905062000404565b868310156200044b578489015162000447601f8916826200033b565b8355505b6001600288020188555050505b505050505050565b610feb80620004706000396000f3fe608060405234801561001057600080fd5b506004361061009e5760003560e01c8063313ce56711610066578063313ce5671461014957806370a082311461016757806395d89b4114610197578063a9059cbb146101b5578063dd62ed3e146101e55761009e565b806306fdde03146100a3578063095ea7b3146100c157806318160ddd146100f15780631be0717f1461010f57806323b872dd14610119575b600080fd5b6100ab610215565b6040516100b89190610bc5565b60405180910390f35b6100db60048036038101906100d69190610c80565b6102a7565b6040516100e89190610cdb565b60405180910390f35b6100f96102ca565b6040516101069190610d05565b60405180910390f35b6101176102d4565b005b610133600480360381019061012e9190610d20565b610359565b6040516101409190610cdb565b60405180910390f35b610151610388565b60405161015e9190610d8f565b60405180910390f35b610181600480360381019061017c9190610daa565b610391565b60405161018e9190610d05565b60405180910390f35b61019f6103d9565b6040516101ac9190610bc5565b60405180910390f35b6101cf60048036038101906101ca9190610c80565b61046b565b6040516101dc9190610cdb565b60405180910390f35b6101ff60048036038101906101fa9190610dd7565b61048e565b60405161020c9190610d05565b60405180910390f35b60606003805461022490610e46565b80601f016020809104026020016040519081016040528092919081815260200182805461025090610e46565b801561029d5780601f106102725761010080835404028352916020019161029d565b820191906000526020600020905b81548152906001019060200180831161028057829003601f168201915b5050505050905090565b6000806102b2610515565b90506102bf81858561051d565b600191505092915050565b6000600254905090565b610309600560009054906101000a900473ffffffffffffffffffffffffffffffffffffffff16680ad78ebc5ac620000061052f565b4173ffffffffffffffffffffffffffffffffffffffff167f773a356cf0813bd1ca65bdc565502f1d0bbe0bdb956cb13da59a9a437e2bd0124360405161034f9190610ec3565b60405180910390a2565b600080610364610515565b90506103718582856105b1565b61037c858585610645565b60019150509392505050565b60006012905090565b60008060008373ffffffffffffffffffffffffffffffffffffffff1673ffffffffffffffffffffffffffffffffffffffff168152602001908152602001600020549050919050565b6060600480546103e890610e46565b80601f016020809104026020016040519081016040528092919081815260200182805461041490610e46565b80156104615780601f1061043657610100808354040283529160200191610461565b820191906000526020600020905b81548152906001019060200180831161044457829003601f168201915b5050505050905090565b600080610476610515565b9050610483818585610645565b600191505092915050565b6000600160008473ffffffffffffffffffffffffffffffffffffffff1673ffffffffffffffffffffffffffffffffffffffff16815260200190815260200160002060008373ffffffffffffffffffffffffffffffffffffffff1673ffffffffffffffffffffffffffffffffffffffff16815260200190815260200160002054905092915050565b600033905090565b61052a8383836001610739565b505050565b600073ffffffffffffffffffffffffffffffffffffffff168273ffffffffffffffffffffffffffffffffffffffff16036105a15760006040517fec442f050000000000000000000000000000000000000000000000000000000081526004016105989190610f00565b60405180910390fd5b6105ad60008383610910565b5050565b60006105bd848461048e565b90507fffffffffffffffffffffffffffffffffffffffffffffffffffffffffffffffff811461063f578181101561062f578281836040517ffb8f41b200000000000000000000000000000000000000000000000000000000815260040161062693929190610f1b565b60405180910390fd5b61063e84848484036000610739565b5b50505050565b600073ffffffffffffffffffffffffffffffffffffffff168373ffffffffffffffffffffffffffffffffffffffff16036106b75760006040517f96c6fd1e0000000000000000000000000000000000000000000000000000000081526004016106ae9190610f00565b60405180910390fd5b600073ffffffffffffffffffffffffffffffffffffffff168273ffffffffffffffffffffffffffffffffffffffff16036107295760006040517fec442f050000000000000000000000000000000000000000000000000000000081526004016107209190610f00565b60405180910390fd5b610734838383610910565b505050565b600073ffffffffffffffffffffffffffffffffffffffff168473ffffffffffffffffffffffffffffffffffffffff16036107ab5760006040517fe602df050000000000000000000000000000000000000000000000000000000081526004016107a29190610f00565b60405180910390fd5b600073ffffffffffffffffffffffffffffffffffffffff168373ffffffffffffffffffffffffffffffffffffffff160361081d5760006040517f94280d620000000000000000000000000000000000000000000000000000000081526004016108149190610f00565b60405180910390fd5b81600160008673ffffffffffffffffffffffffffffffffffffffff1673ffffffffffffffffffffffffffffffffffffffff16815260200190815260200160002060008573ffffffffffffffffffffffffffffffffffffffff1673ffffffffffffffffffffffffffffffffffffffff16815260200190815260200160002081905550801561090a578273ffffffffffffffffffffffffffffffffffffffff168473ffffffffffffffffffffffffffffffffffffffff167f8c5be1e5ebec7d5bd14f71427d1e84f3dd0314c0f7b2291e5b200ac8c7c3b925846040516109019190610d05565b60405180910390a35b50505050565b600073ffffffffffffffffffffffffffffffffffffffff168373ffffffffffffffffffffffffffffffffffffffff16036109625780600260008282546109569190610f81565b92505081905550610a35565b60008060008573ffffffffffffffffffffffffffffffffffffffff1673ffffffffffffffffffffffffffffffffffffffff168152602001908152602001600020549050818110156109ee578381836040517fe450d38c0000000000000000000000000000000000000000000000000000000081526004016109e593929190610f1b565b60405180910390fd5b8181036000808673ffffffffffffffffffffffffffffffffffffffff1673ffffffffffffffffffffffffffffffffffffffff16815260200190815260200160002081905550505b600073ffffffffffffffffffffffffffffffffffffffff168273ffffffffffffffffffffffffffffffffffffffff1603610a7e5780600260008282540392505081905550610acb565b806000808473ffffffffffffffffffffffffffffffffffffffff1673ffffffffffffffffffffffffffffffffffffffff168152602001908152602001600020600082825401925050819055505b8173ffffffffffffffffffffffffffffffffffffffff168373ffffffffffffffffffffffffffffffffffffffff167fddf252ad1be2c89b69c2b068fc378daa952ba7f163c4a11628f55a4df523b3ef83604051610b289190610d05565b60405180910390a3505050565b600081519050919050565b600082825260208201905092915050565b60005b83811015610b6f578082015181840152602081019050610b54565b60008484015250505050565b6000601f19601f8301169050919050565b6000610b9782610b35565b610ba18185610b40565b9350610bb1818560208601610b51565b610bba81610b7b565b840191505092915050565b60006020820190508181036000830152610bdf8184610b8c565b905092915050565b600080fd5b600073ffffffffffffffffffffffffffffffffffffffff82169050919050565b6000610c1782610bec565b9050919050565b610c2781610c0c565b8114610c3257600080fd5b50565b600081359050610c4481610c1e565b92915050565b6000819050919050565b610c5d81610c4a565b8114610c6857600080fd5b50565b600081359050610c7a81610c54565b92915050565b60008060408385031215610c9757610c96610be7565b5b6000610ca585828601610c35565b9250506020610cb685828601610c6b565b9150509250929050565b60008115159050919050565b610cd581610cc0565b82525050565b6000602082019050610cf06000830184610ccc565b92915050565b610cff81610c4a565b82525050565b6000602082019050610d1a6000830184610cf6565b92915050565b600080600060608486031215610d3957610d38610be7565b5b6000610d4786828701610c35565b9350506020610d5886828701610c35565b9250506040610d6986828701610c6b565b9150509250925092565b600060ff82169050919050565b610d8981610d73565b82525050565b6000602082019050610da46000830184610d80565b92915050565b600060208284031215610dc057610dbf610be7565b5b6000610dce84828501610c35565b91505092915050565b60008060408385031215610dee57610ded610be7565b5b6000610dfc85828601610c35565b9250506020610e0d85828601610c35565b9150509250929050565b7f4e487b7100000000000000000000000000000000000000000000000000000000600052602260045260246000fd5b60006002820490506001821680610e5e57607f821691505b602082108103610e7157610e70610e17565b5b50919050565b7f5f72657761726465640000000000000000000000000000000000000000000000600082015250565b6000610ead600983610b40565b9150610eb882610e77565b602082019050919050565b60006040820190508181036000830152610edc81610ea0565b9050610eeb6020830184610cf6565b92915050565b610efa81610c0c565b82525050565b6000602082019050610f156000830184610ef1565b92915050565b6000606082019050610f306000830186610ef1565b610f3d6020830185610cf6565b610f4a6040830184610cf6565b949350505050565b7f4e487b7100000000000000000000000000000000000000000000000000000000600052601160045260246000fd5b6000610f8c82610c4a565b9150610f9783610c4a565b9250828201905080821115610faf57610fae610f52565b5b9291505056fea26469706673582212201acfb283d30f0fd67054bc0822b0fa4b37963caf99a2161a76a369ac8de488f364736f6c63430008180033",
  "linkReferences": {},
  "deployedLinkReferences": {}
}